{
  "_format": "hh-sol-artifact-1",
  "contractName": "Board",
  "sourceName": "contracts/board.sol",
  "abi": [
    {
      "inputs": [],
      "stateMutability": "nonpayable",
      "type": "constructor"
    },
    {
      "inputs": [],
      "name": "boardSize_x_axis",
      "outputs": [
        {
          "internalType": "uint8",
          "name": "",
          "type": "uint8"
        }
      ],
      "stateMutability": "view",
      "type": "function"
    },
    {
      "inputs": [],
      "name": "boardSize_y_axis",
      "outputs": [
        {
          "internalType": "uint8",
          "name": "",
          "type": "uint8"
        }
      ],
      "stateMutability": "view",
      "type": "function"
    },
    {
      "inputs": [
        {
          "internalType": "uint8",
          "name": "_x",
          "type": "uint8"
        },
        {
          "internalType": "uint8",
          "name": "_y",
          "type": "uint8"
        }
      ],
      "name": "getCellColor",
      "outputs": [
        {
          "internalType": "string",
          "name": "",
          "type": "string"
        }
      ],
      "stateMutability": "view",
      "type": "function"
    },
    {
      "inputs": [
        {
          "internalType": "uint8",
          "name": "_x1",
          "type": "uint8"
        },
        {
          "internalType": "uint8",
          "name": "_x2",
          "type": "uint8"
        },
        {
          "internalType": "uint8",
          "name": "_y1",
          "type": "uint8"
        },
        {
          "internalType": "uint8",
          "name": "_y2",
          "type": "uint8"
        }
      ],
      "name": "getColorAtCoordinates",
      "outputs": [
        {
          "internalType": "string",
          "name": "",
          "type": "string"
        },
        {
          "internalType": "string",
          "name": "",
          "type": "string"
        }
      ],
      "stateMutability": "view",
      "type": "function"
    }
  ],
  "bytecode": "0x608060405260056000806101000a81548160ff021916908360ff1602179055506007600060016101000a81548160ff021916908360ff1602179055503480156200004857600080fd5b5060005b60008054906101000a900460ff1660ff168160ff161015620002975760005b600060019054906101000a900460ff1660ff168160ff16101562000280576000600482846200009b9190620002da565b620000a7919062000345565b60ff16036200010c576000600160008460ff16815260200190815260200160002060008360ff16815260200190815260200160002060006101000a81548160ff021916908360038111156200010157620001006200037d565b5b02179055506200026a565b6001600482846200011e9190620002da565b6200012a919062000345565b60ff16036200018e5760018060008460ff16815260200190815260200160002060008360ff16815260200190815260200160002060006101000a81548160ff021916908360038111156200018357620001826200037d565b5b021790555062000269565b600260048284620001a09190620002da565b620001ac919062000345565b60ff160362000211576002600160008460ff16815260200190815260200160002060008360ff16815260200190815260200160002060006101000a81548160ff021916908360038111156200020657620002056200037d565b5b021790555062000268565b6003600160008460ff16815260200190815260200160002060008360ff16815260200190815260200160002060006101000a81548160ff021916908360038111156200026257620002616200037d565b5b02179055505b5b5b80806200027790620003ac565b9150506200006b565b5080806200028e90620003ac565b9150506200004c565b50620003da565b600060ff82169050919050565b7f4e487b7100000000000000000000000000000000000000000000000000000000600052601160045260246000fd5b6000620002e7826200029e565b9150620002f4836200029e565b9250828201905060ff81111562000310576200030f620002ab565b5b92915050565b7f4e487b7100000000000000000000000000000000000000000000000000000000600052601260045260246000fd5b600062000352826200029e565b91506200035f836200029e565b92508262000372576200037162000316565b5b828206905092915050565b7f4e487b7100000000000000000000000000000000000000000000000000000000600052602160045260246000fd5b6000620003b9826200029e565b915060ff8203620003cf57620003ce620002ab565b5b600182019050919050565b6107a980620003ea6000396000f3fe608060405234801561001057600080fd5b506004361061004c5760003560e01c8063034f226014610051578063a3eae4971461006f578063bea92c3b1461008d578063fc0ab062146100be575b600080fd5b6100596100ee565b6040516100669190610490565b60405180910390f35b610077610101565b6040516100849190610490565b60405180910390f35b6100a760048036038101906100a291906104dc565b610112565b6040516100b59291906105d3565b60405180910390f35b6100d860048036038101906100d3919061060a565b610289565b6040516100e5919061064a565b60405180910390f35b600060019054906101000a900460ff1681565b60008054906101000a900460ff1681565b60608060008054906101000a900460ff1660ff168660ff161115801561014b575060008054906101000a900460ff1660ff168560ff1611155b801561018d5750600060019054906101000a900460ff1660ff168460ff161115801561018c5750600060019054906101000a900460ff1660ff168360ff1611155b5b6101cc576040517f08c379a00000000000000000000000000000000000000000000000000000000081526004016101c3906106b8565b60405180910390fd5b6000600160008860ff16815260200190815260200160002060008660ff16815260200190815260200160002060009054906101000a900460ff1690506000600160008860ff16815260200190815260200160002060008660ff16815260200190815260200160002060009054906101000a900460ff16905061025f82600381111561025a576102596106d8565b5b61035c565b61027a826003811115610275576102746106d8565b5b61035c565b93509350505094509492505050565b606060008054906101000a900460ff1660ff168360ff16111580156102c35750600060019054906101000a900460ff1660ff168260ff1611155b610302576040517f08c379a00000000000000000000000000000000000000000000000000000000081526004016102f990610753565b60405180910390fd5b610354600160008560ff16815260200190815260200160002060008460ff16815260200190815260200160002060009054906101000a900460ff16600381111561034f5761034e6106d8565b5b61035c565b905092915050565b606060018260ff16036103a6576040518060400160405280600581526020017f426c61636b000000000000000000000000000000000000000000000000000000815250905061046f565b60028260ff16036103ee576040518060400160405280600381526020017f5265640000000000000000000000000000000000000000000000000000000000815250905061046f565b60038260ff1603610436576040518060400160405280600481526020017f426c756500000000000000000000000000000000000000000000000000000000815250905061046f565b6040518060400160405280600581526020017f576869746500000000000000000000000000000000000000000000000000000081525090505b919050565b600060ff82169050919050565b61048a81610474565b82525050565b60006020820190506104a56000830184610481565b92915050565b600080fd5b6104b981610474565b81146104c457600080fd5b50565b6000813590506104d6816104b0565b92915050565b600080600080608085870312156104f6576104f56104ab565b5b6000610504878288016104c7565b9450506020610515878288016104c7565b9350506040610526878288016104c7565b9250506060610537878288016104c7565b91505092959194509250565b600081519050919050565b600082825260208201905092915050565b60005b8381101561057d578082015181840152602081019050610562565b60008484015250505050565b6000601f19601f8301169050919050565b60006105a582610543565b6105af818561054e565b93506105bf81856020860161055f565b6105c881610589565b840191505092915050565b600060408201905081810360008301526105ed818561059a565b90508181036020830152610601818461059a565b90509392505050565b60008060408385031215610621576106206104ab565b5b600061062f858286016104c7565b9250506020610640858286016104c7565b9150509250929050565b60006020820190508181036000830152610664818461059a565b905092915050565b7f496e76616c696420636f6f7264696e6174657300000000000000000000000000600082015250565b60006106a260138361054e565b91506106ad8261066c565b602082019050919050565b600060208201905081810360008301526106d181610695565b9050919050565b7f4e487b7100000000000000000000000000000000000000000000000000000000600052602160045260246000fd5b7f496e76616c69642078206f722079206178697300000000000000000000000000600082015250565b600061073d60138361054e565b915061074882610707565b602082019050919050565b6000602082019050818103600083015261076c81610730565b905091905056fea264697066735822122064fe20c364daac8ec8fbcf57ea11e993e96c4f54e5ce4a758320a539da34d54264736f6c63430008130033",
  "linkReferences": {},
  "deployedLinkReferences": {}
}